:0A0000000C944F000C9400000C94C7
:10000A0000000C9400000C9400000C9400000C9466
:10001A0000000C9400000C9400000C9400000C9456
:10002A0000000C9400000C9400000C9400000C9446
:10003A0000000C9400000C9400000C9400000C9436
:10004A0000000C9400000C9400000000003FCDCC8E
:10005A004C3D0AD7A33B6F12033A17B75138ACC5C8
:10006A00A736BD37063580C00000463D25332E32FF
:10007A0066206B487A00463D25332E306620487A42
:10008A0000463D7E00000200640170000200680123
:10009A0072000000F894EE27ECBBF1E0FBBFEBBF67
:1000AA00E5BFF8E1F1BDE1BD8DE0A2E0BB27ED932C
:1000BA008A95E9F780E094E0A0E6ED930197E9F7E5
:1000CA00E0E9F0E085919591009761F0A591B591ED
:1000DA0005901590BF01F00105900D920197E1F787
:1000EA00FB01F0CFEFE5EDBFE4E0EEBFC0E6D1E003
:1000FA000C94B500A0970E94E605E0E0F0EC69E7F1
:10010A0074E40E948F0909F010F40C949B000E9479
:10011A00EF05E4E7F0E0FA93EA930E94E605E0E0EF
:10012A00F0E06AE774E40E944A0908C00E94EF05F9
:10013A00E0E8F0E0FA93EA930E94F3050E94F607DA
:10014A0084E00E94B30428960E94FC050E943805A8
:10015A000E9401060E94EF050E946805A096089574
:10016A00C19AB998E0E0EFBDEEBDEDBDECBDE2BDD0
:10017A00E0E1EA930E949A050E940106EBE8F0E0AA
:10018A00FA93EA930E947705E6E0EEBDE8EEF3E023
:10019A000E9407060E941C0618F00E94FC0503C074
:1001AA000E947F00F1CFE6E0EEBDEAEFF0E00E94A8
:1001BA0007060E9424060E9424060E941C0619F0C3
:1001CA0010F00C94EB000E94FC05DECF0E94310671
:1001DA0018F00E94FC0507C00E947F00EAEFF0E0D9
:1001EA000E943906E0CFE6E0EEBDEEE3F0E00E94C1
:1001FA00390688EE93E00197F1F7E0E0EEBDECB541
:10020A00FDB5662777270E947408E0936001F09392
:10021A00610160936201709363010E9424060E9447
:10022A0024060E9424060E9424060E941C0619F035
:10023A0010F00C9423010E94FC05A6CF0E943106FF
:10024A0019F010F00C942C010E94FC05ACCF0E940E
:10025A007F00E4EFF1E00E943906C5CFFFCF5F9B34
:10026A00FECFECB108955D9BFECFE881ECB92196F3
:10027A0008951A930A93AC81BD810E94E6073097CC
:10028A00B9F0AA81BB810E94E6078F01309749F035
:10029A000230E0E01E0758F0F80131978F01ED9324
:1002AA00FC93AC81BD810E943D06AE81A08304C04F
:1002BA00EE81EA930E9438011981088127960895F0
:1002CA0024971A930A93A885A73010F0E6E0E887E6
:1002DA00E885A4E5B0E0F0E00E948207EA0FFB1F80
:1002EA000E94F0070E9444060E94AE080E94490636
:1002FA0010E0E0E0F0E060E87FE30E944E060E9432
:10030A0053060E948F0940F00E9458060E94FC087A
:10031A000E944E061F5FF3CF103029F40E94610637
:10032A00E0E3EC9322C0E12F1150E030F1F00E949B
:10033A0058060E9468060E944E060E9453060E94B2
:10034A004A090E943D080E2F0E9461060E94740607
:10035A00AA81BB818C819D810E9479060E94FC083A
:10036A000E9444060E947F06DECFE885E03029F429
:10037A00AE81BF81E0E0EC9325C00E946106EEE207
:10038A00EC93E885E150E887EF5FC1F00E944406EC
:10039A000E9484060E944906E985FA856B857C8558
:1003AA000E943B080E2F0E9461060E9474060E945A
:1003BA0044060E9479060E947F06E3CFAE81BF8180
:1003CA00E0E0EC93198108812D96089524970E9404
:1003DA00B909E0E0F0E060E87FE30E948B06AB85B4
:1003EA00A73010F0E6E0EB871B85E12F1150E030D3
:1003FA0029F00E9490060E948B06F7CF0E9495066C
:10040A000E94AF0931F430E00E9490060E948B06E8
:10041A0034C03B850E949A0609F010F40C9422021B
:10042A000E9490060E948B060E949A0628F00E945B
:10043A00A5060E94AA06F8CF0FC00E949A0640F4A9
:10044A000E94A5060E9484060E94B6063150F5CF86
:10045A000E9490060E948B060E949506A0E0B0E0DA
:10046A0080E09FE30E94AE080E94B6060E949A06A8
:10047A0020F00E94A5060E94AA0610E0EB85E1176B
:10048A00A0F1AC81BD818E819F81E0E0F0E060E265
:10049A0071E40E9468060E948B06EC81FD816E81E0
:1004AA007F810E94A5060E944A090E943D080E2FDC
:1004BA000E94BB060E9474060E947906AC81BD8127
:1004CA008E819F810E94FC080E94A5060E94FB075C
:1004DA000E94A7080E94B606E12F1F5FE03071F65E
:1004EA000E94BB06EEE2EC93C9CF0E94C206AA851F
:1004FA00A08330302CF40E94BB06EDE2EC933195D8
:10050A003A3054F00E94C206BF01A32FEAE00E94CB
:10051A00A007E05DDB01EC930E94C206BF01A32F96
:10052A00EAE00E94CA07E05DDB01EC93A885B98581
:10053A00E0E0EC930E94C00960960895EF972F9728
:10054A000E94B70910E0FE01EC5AFF4F0190F081BA
:10055A00E02DE88BF98BDE01A65ABF4F0E943D06BB
:10056A00E4912E2FE03011F40C94AE04E12FE03028
:10057A0039F4253211F411E002C00E94C906E8C11B
:10058A00E130C1F4253219F40E94C906E0C112E033
:10059A00E0E0EB8B00E02D3211F401E0D9C12B32FF
:1005AA0019F4EBE2EB8BD4C1203219F4E0E2EB8BC5
:1005BA00CFC102C0E23039F450E013E0203311F425
:1005CA000068C6C102C0E330A1F4203310F02A3318
:1005DA0008F009C0A52FEAE0EA9FF0015E2FE22F9A
:1005EA00E0535E0FB5C140E02E3211F414E0B0C101
:1005FA0011C0E430A9F4203310F02A3308F00AC0FD
:10060A000062A42FEAE0EA9FF0014E2FE22FE053A6
:10061A004E0F9EC12C3619F4026015E099C104C030
:10062A00E53011F00C94AD04E22FE33631F40E9468
:10063A00D806E4810E94E1068AC1E53411F0E53664
:10064A0009F404C0E63611F00C947303FE017496A3
:10065A00EA87FB870E94D8063496DF010E94EA07E0
:10066A000E94F006DF01CB010E94B30924F0AB8996
:10067A00AB3249F012C00E94F5060E9408080E9497
:10068A00F006EDE2EB8B07FF04C0EB890E94E1065E
:10069A0004C00E94FA06AB89A08305FF46E026360D
:1006AA0061F40E94F5060E94F6074A93EF85F889DD
:1006BA00FA93EA930E9465010CC00E94F5060E9413
:1006CA00F6074A932A93E889F989FA93EA930E94EA
:1006DA00EB01FE0174960E9401071EC0E33739F44C
:1006EA000E94D8060E9409070E9401070EC0E0373F
:1006FA00C1F40E94D8060E940907EA87FB87FA9389
:10070A00EA930E94DB051E2F08600F77403011F034
:10071A00411708F001C0142F40E0E0E0EA8B30E016
:10072A006FC0E43611F0E93611F4046002C0E5370F
:10073A00A1F4EAE0EA8B01FF08C0E0E0FAEC6AE91A
:10074A007BE30E94B6061AE023C0E0E1F7E260E02C
:10075A0070E00E94B60615E01BC0E83511F4086087
:10076A0004C0E83711F00C94AC04E0E1EA8B01FF15
:10077A0008C0E0E0F0E060E070E10E94B60618E030
:10078A0007C0E0E0F0E160E070E00E94B60614E025
:10079A00403011F00F7701C041E001FF07C00E940D
:1007AA00D8063496DF010E94EA070FC002FF07C08D
:1007BA000E94D8060E9409070E948D0706C00E945F
:1007CA00D8060E94090766277727EE83FF83688782
:1007DA00798702FF14C00E940E070E94B30944F4ED
:1007EA000E94F5060E947A070E94F006EDE2EB8B62
:1007FA00EB89E03019F01F5F4F5F01C00B7F342F88
:10080A0000FD14C0151710F4351708F00FC007FFC4
:10081A0008C002FF04C00B7F2B89115001C020E3DE
:10082A0001C020E20E94C9065150ECCF141788F487
:10083A00006102FF06C00E94130709F051501150CF
:10084A004150E0E30E94E106503009F05150415016
:10085A00EDCF312FEA89E03011F53030F9F003FF9E
:10086A0004C00E94FA06E49105C0AA85BB85ED91F1
:10087A00AA87BB87EA93FE01E95AFF4F0190F081EC
:10088A00E02DFA93EA93FE017396FA93EA930E9493
:10089A003E01503009F051503150DFCF4FC00E9415
:1008AA0095060E940E070E94A5072E2F2A3030F0C7
:1008BA0003FF02C0295C01C0295A01C0205D04FD62
:1008CA001FC0213350F40E94A506A130E0E0BE0704
:1008DA00E0E08E07E0E09E0709F40BC0431740F4FE
:1008EA00531710F000FF01C010C020E207FF08C034
:1008FA0020E3006102FF04C00E94130709F051506F
:10090A000E94C906503009F0515031500E94950694
:10091A000E940E070E94D6070E94F006EA890E94EA
:10092A00A506FF27662777270E94A5070E94B60615
:10093A000E9495060E94AF0909F0B1CF00FF07C0D7
:10094A00503029F05150E0E20E94E106F9CF10E060
:10095A0002CE0E94BE09EF966D960895FF92F82E78
:10096A0022971A930A93DE010E9476078D01DE010F
:10097A0016960E9476070E94E607EA83FB83DE0149
:10098A0014960E9476070E94E607FA93EA931A934E
:10099A000A93FE013696FA93EA93E0E0F0E0FA93BE
:1009AA00EA930E94A302AA81BB81E0E0EC93198139
:1009BA0008812496FF900895FFE0FA95F1F70895CB
:1009CA00AAB3AF70AABBD99AD8980E94E104DA9A5E
:1009DA000E94E104A9B3DA980E94E104DA9A0E941B
:1009EA00E104DA98A7FDF1CF0895A07FAB2BABBB4A
:1009FA00DA9A0E94E104DA980E94E1040895D998EB
:100A0A00AAB3A76FAABBBBB3BF70A8810E94FA049E
:100A1A00A881A2950E94FA04D99A21960895DA9A91
:100A2A000E94E104E9B3DA980E94E104E07F0895A4
:100A3A000E94E1040E941405AE2F0E941405D99861
:100A4A00E295EA2B08950E94E504E881F0E0EC596A
:100A5A00FE4FE081A981EA0FEA930E9404055980BA
:100A6A004880229608950E94E504E2E0EA930E94F3
:100A7A0004050E94E504ECE0EA930E9404050E9442
:100A8A00E504E1E0EA930E940405E0E04E2E5E2EC2
:100A9A000895EF93FF93A8816894AA3021F0E8940F
:100AAA005394751438F44394E0E0EA934A920E940E
:100ABA0028052EF085DFD89AA881AA93A0DFFF9196
:100ACA00EF91219608951A93A981BA81ED91A9838C
:100ADA00BA831E2FE03021F01A930E944E05F4CFFC
:100AEA00188110C01A93E981FA813196E983FA8351
:100AFA003197E4911E2FE03021F01A930E944E059F
:100B0A00F2CF188123960895AA27BB271197F1F7E8
:100B1A000895D998AAB3A76FAABBBBB3BF70A8811F
:100B2A000E94FA04D99A21960895DA98D89878807A
:100B3A00E881E058E0936601E881E054E0936701B8
:100B4A000E9427070E9427070E9427070E948905FB
:100B5A00E0E2EA930E948E050E948905E8E20E947B
:100B6A002D07E4E00E942D07E5E80E942D07AAB3AD
:100B7A00AF70AABBD99A0E941D05E53011F0E0E0DA
:100B8A0009C00E94E504E6E0EA930E9404050E9477
:100B9A003805E1E021960895A991B991EE27FF273A
:100BAA006D91662311F03196FBCF0895AA27BB27D2
:100BBA00E991F9910590002011F01196FBCFFD0102
:100BCA000895A0916001B0916101809162019091B4
:100BDA0063010895FE01FA93EA930895E091600192
:100BEA00F091610160916201709163010895E0E002
:100BFA00F0E0FDBDECBD0895E2E0EA93E0E0EA939F
:100C0A000C942805FA93EA930E943207E0E0EEBDBD
:100C1A00ECB5FDB5662777270E947408E09360015A
:100C2A00F093610160936201709363010895C9DFD3
:100C3A00E0E0F0E46CE176E40E948F090895CEDFEB
:100C4A00C0DF0E94AE08E0936001F09361016093F7
:100C5A006201709363010895B4DFE0E0FCE762E1AA
:100C6A0078E40E948F090895FA93EA930C94320764
:100C7A00ED91FD913196FE93EE9331970895A985F2
:100C8A00BA858B859C850895E987FA876B877C8767
:100C9A000895EA83FB836C837D830895EA81FB814F
:100CAA006C817D81ECCFAA81BB818C819D81E0E042
:100CBA00F0E060E271E40895AE81BF811196AE83DF
:100CCA00BF83119708950E944A09A0E0B0E080E02E
:100CDA009FE30E94AE080E94F6070C946D07E02F6E
:100CEA00E05DEC93E02F0895FF27662777270E949F
:100CFA00740808950E94FB070E94A708C5CFE0E088
:100D0A00F0E060E271E40E94FC080895EC83FD8340
:100D1A006E837F830895AC81BD818E819F81EFCFE1
:100D2A00EC85FD856E857F850895EC81FD816E8158
:100D3A007F81AC85BD858E859F850E948F09089528
:100D4A00AC85BD858E859F850895E0E0F0E060E280
:100D5A0071E40E944A09EC87FD876E877F873F5FAF
:100D6A000895EC87FD876E877F870895A885B985E2
:100D7A001196A887B98711970895E885F98531965C
:100D8A00E887F987319708952A93FE01E95AFF4FB8
:100D9A000190F081E02DFA93EA93FE017396FA939B
:100DAA00EA930C943E01DE01A85ABF4FED91FD91E2
:100DBA003497FE93EE930895EA93FE01E95AFF4FA2
:100DCA000190F081E02DFA93EA93FE017396FA936B
:100DDA00EA930C943E01EE83FF836887798708952E
:100DEA00EE81FF81688579850895EA85FB853196CC
:100DFA00EA87FB8731970895EA87FB87FA93EA9394
:100E0A000E94D1051E2F08953496DF010E94E6073D
:100E1A000895AE81BF818885998508950B7FEB89F6
:100E2A00EA93FE01E95AFF4F0190F081E02DFA930F
:100E3A00EA93FE01E95AFF4FFA93EA930E943E01B0
:100E4A00503008950E948905E0E3EA930C948E05D8
:100E5A00EA930E9404050C948905E991F991309668
:100E6A0039F080ED97E00197F1F7A8953197C9F726
:100E7A0008957B816A81F981E88177FB770F67FDA5
:100E8A007160972F9E5781F078F0983190F4AA27D5
:100E9A00BB27882708948795B795A7959A95D1F780
:100EAA00EA23FB23682305C0E8947727EE27FF2768
:100EBA0066276F77769508F4606877F9A991B991F2
:100ECA0089919991EA17FB076807790797FB0895B3
:100EDA00D0DF09F40895F6F79FEBAA27BB2780E82D
:100EEA0038C10024AF0DB01D0895F0956095709536
:100EFA00E195FF4F6F4F7F4F0895EE0FFF1FEE0FE3
:100F0A00FF1F0895FE2FFF0FFF0B6F2F7F2F0895EE
:100F1A006F2F660F660B762F0895002498E0AA0FAC
:100F2A00001C0E1A10F40E0E01C0A1609A95B9F7B2
:100F3A00EA2FA02D089539D0F0DF0EF4E195089537
:100F4A003F934F935F93002411244427552730E29F
:100F5A00AA0FBB1F881F991F001C111C441F551F75
:100F6A000E1A1F0A460B570B28F40E0E1F1E461F99
:100F7A00571F01C0A1603A9559F7FD01BC01D00184
:100F8A00CA015F914F913F910895E894A7FF02C06B
:100F9A00A1956894E7FDE195C0DFEA2F0EF4E1958B
:100FAA000895CEDFFD01BC010895E894E7FF02C071
:100FBA00E1956894A7FF04C0A19500F8039400FA8C
:100FCA000895ED91FC9111970895ED91FD916D9120
:100FDA007C91139708950590159065917491F0018D
:100FEA0008957A936A93FA93EA930895182E862FAE
:100FFA00612D192E972F712D1B2EBF2FF12D1A2E11
:10100A00AE2FE12D089530976040704009F0705876
:10101A000895552342F4503811F4E0FF04C0319684
:10102A00691F791F6BF050E8572711F45F93CDC001
:10103A005F3F31F0660F000C57956795752F08953D
:10104A005F9300200AF0CDC0C6C050E8192E1522C1
:10105A00880F991F9527550F879550E8072E052267
:10106A00660F771F7527550F67950895689401C015
:10107A00E8945F93F2DF703818F07F3F08F4A5C058
:10108A0056E1571BAAF4519558300EF4593030F0F6
:10109A00EFEFFFEF6FEF7FE777F91AC07727552356
:1010AA00B9F0EE0FFF1F661F771F5A95D1F710C0D0
:1010BA007727583028F0EF2FF62F672F5850F9CF9F
:1010CA00552331F076956795F795E7955A95D1F7B7
:1010DA0000200AF40ADF5F910895689401C0E89439
:1010EA00309760407040B1F0002426F0772312F464
:1010FA000094FBDE172E7EE1112032F07A95EE0F76
:10110A00FF1F661F111CF9CFEF2FF62F612D5F937A
:10111A008ADF5F9108954F93AF01FD01DA01AB01B8
:10112A00BC01CA01402D012C142E4F910895EA0FDB
:10113A00FB1F681F0895E095F0956095EF5FFF4FDC
:10114A006F4F08955F9381DF903871F150E815264B
:10115A0004C05F937ADF903839F1703821F1572F44
:10116A00591B13F112F4D7DFFACF583118F0AA2716
:10117A00BB278827583028F0AB2FB82F882758501C
:10118A00F9CF552329F08695B795A7955A95D9F79A
:10119A00502D512562F0CBDF38F46795F795E79526
:1011AA00739513F41EC0B7DF3EDF5F910895EA1B03
:1011BA00FB0B680B51F010F40094BDDF6623A2F319
:1011CA00EE0FFF1F661F7A95CBF7EE27FF276627DC
:1011DA0077275F910895EFEFFFEF6FE77FEF5F915A
:1011EA000895EFEFFFEF6FE77FE75F9108955F9351
:1011FA002CDF703851F3903841F301240894791F99
:10120A0023F41CF300203AF3ECCF0F921F932F9391
:10121A003F934F93112722279927689FA0018F9FF9
:10122A00302D410D591F6B9F300D411D591F8E9F47
:10123A0027D0BF9F25D06A9F23D0BE9F1DD0AF9FC6
:10124A001BD0AE9F110D291F391F491F591FE32FAC
:10125A00F42F652F522F4F913F912F911F910F908D
:10126A0066232AF0550FEE1FFF1F661F02C07395F3
:10127A004BF2CFDE5F910895100D211D391F02C078
:10128A00200D311D491F591F08955F93DEDE703806
:10129A0021F411200AF49FCFA4CF903809F495CFF6
:1012AA0001240894970B1BF4D4F30020F3CF792F71
:1012BA001F932F933F934F931124112722273327EC
:1012CA004427552790E2AE17BF078607410730F03B
:1012DA00AE1BBF0B860B410B089401C08894551FA7
:1012EA00221F331F111CAA1FBB1F881F441F9A9558
:1012FA0051F7F901612D4F913F912F911F9166236B
:10130A0032F0550FEE1FFF1F661F7A9543F281DEFA
:10131A005F91089599239AF0772342F0971748F03E
:10132A0029F4AE17BF07860720F031F09894889405
:10133A0008959894089408951894889408957723A2
:10134A00C2F7971798F3A9F7EA17FB07680788F314
:10135A0099F3ECCF30976040704008951097804021
:10136A00904008955A934A933A932A931A930A9368
:10137A0008955D814C813B812A81198108810895F4
:00000001FF
